:0200000039299C
:0E000600213083120313FD00FD0B07280800B4
:100014000F3083120313FC004730FD00FD0B102842
:0A002400FC0B10280000000008008B
:06002E00000000000800C4
:1000340083120313A91B2028861121288615291B46
:100044002528061126280615A91A2A2886102B28E1
:100054008614291A2F280610302806142318342849
:10006400061635280612861617208612A9193C286A
:1000740086113D288615291941280611422806159E
:10008400A918462886104728861429184B280610D4
:100094004C280614231850280616512806128616D2
:1000A40017208612231C58280A20592803200800E8
:0E00B4008312031325088A0024088200080026
:1000C20083120313A901AB01AC011030AD0004305F
:1000D2002C0203188D28F03088002D098316880021
:1000E200172017200F3083120805F0007008AA00AD
:1000F2007008031987282B08A9002A0803198528E4
:10010200AA0CAA13A90A7E280430AC00AD0D2D104A
:0E0112000430AB07AC0A68282908F00008008A
:10012000063083120313FD00FD0B94280000080025
:1001300061207008A6000F300805F0000319A228FE
:0A01400090209B282608F00008001C
:10014A0083160313861206120610861006118611EC
:10015A0083128612061286110611861006100A20CC
:10016A000A200A20861406148616172086120A20E8
:10017A008616172086120A208616172086120A204B
:10018A0006108616172086120A208616172086124F
:10019A00861086158616172086120A2086110614DE
:1001AA0086161720861206108616172086120A202F
:1001BA0086161720861206148616172086120A201B
:1001CA00061086161720861286150615861406143A
:0C01DA008616172086120A202314080045
:1001E6000529803083120313A6001829C030A60003
:1001F60018299430A6001829D430A6001829803072
:10020600A6001829831203132608013A0319F428B5
:100216002608023A0319F9282608033A0319FC2886
:100226002608043A0319FF2802292703F0002608A6
:10023600F0077008A60023147008A9001A202310DE
:0A0246002808A9001A20231408005C
:0A025000FF30831603138800080036
:10025A005A208A110A128000840AA40A0319A50ADC
:08026A00F003031D2D2908001B
:10027200013083120313A0000130A10028210317CB
:1002820088018901A5200130A9001A200C30A9009B
:100292001A20A2012208031D522998207008A200E8
:1002A2004B2983293130A200C3293230A200C3294D
:1002B2003330A200C3294130A200C3293430A20046
:1002C200C3293530A200C3293630A200C3294230E7
:1002D200A200C3293730A200C3293830A200C329A3
:1002E2003930A200C3294330A200C3292A30A20018
:1002F200C3293030A200C3292330A200C3294430CD
:10030200A200C3292208013A031953292208023AFA
:10031200031956292208033A031959292208043AD3
:1003220003195C292208053A03195F292208063AB3
:10033200031962292208073A031965292208083A93
:10034200031968292208093A03196B2922080A3A73
:1003520003196E2922080B3A0319712922080C3A53
:100362000319742922080D3A0319772922080E3A33
:1003720003197A2922080F3A03197D292208103A13
:10038200031980292008A6002108A7002208A80036
:10039200F320A10A21080E3C0318D229A00A013039
:1003A200A1002008063C0318D8290130A0004A29E0
:0203B200D92947
:04400E00F22F000786
:00000001FF
