:020000004E2A86
:06000600000000000800EC
:0E000C00213083120313FD00FD0B0A280800AB
:10001A000F3083120313FC004730FD00FD0B132839
:0A002A00FC0B132800000000080082
:1000340083120313D91B2028861121288615591BE6
:100044002528061126280615D91A2A2886102B28B1
:100054008614591A2F280610302806144B183428F1
:10006400061635280612861603208612D9193C284E
:1000740086113D288615591941280611422806156E
:10008400D918462886104728861459184B28061074
:100094004C2806144B1850280616512806128616AA
:1000A400032086124B1C58280D20592806200800CE
:1000B400831203134B105808D9001A204B1408005C
:1000C40083120313D301D501D6011030D7000430B5
:1000D400560203188E28F0308800570983168800CA
:1000E400032003200F3083120805F0007008D400A9
:1000F4007008031988285508D30054080319862862
:10010400D40CD413D30A7F280430D600D70D57104B
:0E0114000430D507D60A69285308F000080009
:0E0122008312031347088A0046088200080073
:1001300083120313F801F9011030FC00710DF80D62
:10014000F90D7408F8027508031C750FF9020318FD
:10015000B0287408F80775080318750FF90703101D
:0A016000F00DF10DFC0B9E280800C5
:10016A00C728803083120313D300DA28C030D300A3
:10017A00DA289430D300DA28D430D300DA28803051
:10018A00D300DA28831203135308013A0319B62855
:10019A005308023A0319BB285308033A0319BE2825
:1001AA005308043A0319C128C4285403F000530819
:1001BA00F0077008D3007008D9001A204B10D60136
:1001CA0056085507840000080319F32856085507EE
:1001DA0084000008D8005A20D60AE5284B140800E3
:1001EA000729803083120313D3001A29C030D300A1
:1001FA001A299430D3001A29D430D3001A2980300E
:10020A00D3001A29831203135308013A0319F62853
:10021A005308023A0319FB285308033A0319FE2824
:10022A005308043A0319012904295403F000530816
:10023A00F0077008D3004B147008D9001A204B102D
:0A024A005508D9001A204B140800D3
:10025400063083120313FD00FD0B2E290000080055
:10026400013083120313D3000430D4002830D500A6
:10027400B5200230D3000430D4002E30D500B52090
:02028400080070
:1002860083120313CF014F084E0784000008031999
:1002960054294F084E0784000008D8005A20CF0A78
:0402A60046290800DD
:1002AA007029013083120313D3000430D4002030A4
:1002BA00D500F5207E290230D3000430D400203046
:1002CA00D500F5207E290330D3000630D400203033
:1002DA00D500F5207E29831203132008013A031959
:1002EA0056292008023A031960292008033A0319FB
:0402FA006829080067
:1002FE00033083120313D3000630D4002130D5000F
:04030E00B52008000E
:10031200831203137008F100F0010830FC00710829
:10032200F40C03189829FC0B9129F10100340310F5
:100332009D29F40C0318F107F10CF00CFC0B9A291F
:020342000800B1
:0A034400FF30831603138800080041
:10034E0091208A110A128000840AC60A0319C70A6C
:08035E00F003031DA7290800AC
:1003660062207008CE000F300805F0000319BD2981
:0A0376002A21B6294E08F000080005
:1003800083120313D101053051020318CE295108FD
:100390005007840020308000D10AC329510850073B
:1003A00084008001D10351085007D2000A30F400C4
:1003B000F5014E08F0004F08F10098207808F00091
:1003C0007908F1003030F00752088400700880008E
:1003D0000A30F400F5014E08F0004F08F1009820B3
:1003E0007008CE007108CF0000307106031DFA2995
:1003F00000307006031DFD29FF29D103D329080011
:100400008316031386120612061086100611861133
:1004100083128612061286110611861006100D2010
:100420000D200D20861406148616032086120D203A
:100430008616032086120D208616032086120D20B4
:1004400006108616032086120D20861603208612BB
:10045000861086158616032086120D208611061436
:1004600086160320861206108616032086120D209B
:1004700086160320861206148616032086120D2087
:100480000610861603208612861506158614061495
:0C0490008616032086120D204B14080075
:10049C006C23A22103178801890100220130D900A5
:1004AC001A200230D3000130D4003C30D500B520E6
:1004BC000330D3000130D4003530D500B5200130E5
:1004CC00D3000130D4004130D500B520CD014D080A
:1004DC00031D742AB3217008CD006D2AB92A31305E
:1004EC00CD000130CC00F92A3230CD000230CC00E6
:1004FC00F92A3330CD000330CC00F92A4130CD003D
:10050C006C2A3430CD000430CC00F92A3530CD00C3
:10051C000530CC00F92A3630CD000630CC00F92A53
:10052C004230CD006C2A3730CD000730CC00F92A90
:10053C003830CD000830CC00F92A3930CD000930E4
:10054C00CC00F92A4330CD006C2A2A30CD006C2A1D
:10055C003030CD00CC01F92A2330CD00CC01F92A62
:10056C004430CD006C2A4D08013A0319752A4D0808
:10057C00023A03197A2A4D08033A03197F2A4D08C7
:10058C00043A0319842A4D08053A0319872A4D08A1
:10059C00063A03198C2A4D08073A0319912A4D087B
:1005AC00083A0319962A4D08093A0319992A4D0855
:1005BC000A3A03199E2A4D080B3A0319A32A4D082F
:1005CC000C3A0319A82A4D080D3A0319AB2A4D0809
:1005DC000E3A0319AE2A4D080F3A0319B22A4D08E8
:1005EC00103A0319B62A4D08233A031D002BA00A12
:1005FC0055210B2B4D082F3C03180B2B3A304D0279
:10060C0003180B2B4D08D8005A20332B3408F0005C
:10061C000A30F40089214C087007B4003F2B2708DE
:10062C00F0000A30F40089214C087007A7003F2B1A
:10063C007F21552127083407CE00CF010318CF0A9C
:10064C004830D000C0214830CE004321B401A7016E
:10065C000130A000322155213F2B2008013A03190B
:10066C000C2B2008023A0319152B2008033A031906
:06067C001E2B6C2A402B2E
:1006D80020308400263083120313F0004630C60011
:0806E8000330C700A721080040
:02068C00013437
:0C068E0020342034203420342034003488
:02069A0000342A
:0C069C002034203420342034203400347A
:0C06A8002034203420342034203400346E
:0206B400003410
:0E06B60078342B34793420343D342034003431
:0A06C400793420343D342034003432
:0A06CE00783420343D342034003429
:04400E00F22F000786
:00000001FF
